{
  "contractName": "certi",
  "abi": [
    {
      "inputs": [],
      "stateMutability": "nonpayable",
      "type": "constructor"
    },
    {
      "inputs": [
        {
          "internalType": "string",
          "name": "",
          "type": "string"
        }
      ],
      "name": "certificateDetails",
      "outputs": [
        {
          "internalType": "string",
          "name": "courseName",
          "type": "string"
        },
        {
          "internalType": "string",
          "name": "candidateName",
          "type": "string"
        },
        {
          "internalType": "string",
          "name": "grade",
          "type": "string"
        },
        {
          "internalType": "string",
          "name": "date",
          "type": "string"
        }
      ],
      "stateMutability": "view",
      "type": "function",
      "constant": true
    },
    {
      "inputs": [
        {
          "internalType": "string",
          "name": "_certificateID",
          "type": "string"
        },
        {
          "internalType": "string",
          "name": "_courseName",
          "type": "string"
        },
        {
          "internalType": "string",
          "name": "_candidateName",
          "type": "string"
        },
        {
          "internalType": "string",
          "name": "_grade",
          "type": "string"
        },
        {
          "internalType": "string",
          "name": "_date",
          "type": "string"
        }
      ],
      "name": "newCertificate",
      "outputs": [],
      "stateMutability": "nonpayable",
      "type": "function"
    }
  ],
  "bytecode": "0x608060405234801561001057600080fd5b50336000806101000a81548173ffffffffffffffffffffffffffffffffffffffff021916908373ffffffffffffffffffffffffffffffffffffffff160217905550610b8f806100606000396000f3fe608060405234801561001057600080fd5b50600436106100365760003560e01c80636fe5033c1461003b578063b7b5e1d41461006e575b600080fd5b61005560048036038101906100509190610579565b61008a565b604051610065949392919061064a565b60405180910390f35b610088600480360381019061008391906106ab565b6102f0565b005b6001818051602081018201805184825260208301602085012081835280955050505050506000915090508060000180546100c3906107e1565b80601f01602080910402602001604051908101604052809291908181526020018280546100ef906107e1565b801561013c5780601f106101115761010080835404028352916020019161013c565b820191906000526020600020905b81548152906001019060200180831161011f57829003601f168201915b505050505090806001018054610151906107e1565b80601f016020809104026020016040519081016040528092919081815260200182805461017d906107e1565b80156101ca5780601f1061019f576101008083540402835291602001916101ca565b820191906000526020600020905b8154815290600101906020018083116101ad57829003601f168201915b5050505050908060020180546101df906107e1565b80601f016020809104026020016040519081016040528092919081815260200182805461020b906107e1565b80156102585780601f1061022d57610100808354040283529160200191610258565b820191906000526020600020905b81548152906001019060200180831161023b57829003601f168201915b50505050509080600301805461026d906107e1565b80601f0160208091040260200160405190810160405280929190818152602001828054610299906107e1565b80156102e65780601f106102bb576101008083540402835291602001916102e6565b820191906000526020600020905b8154815290600101906020018083116102c957829003601f168201915b5050505050905084565b60008054906101000a900473ffffffffffffffffffffffffffffffffffffffff1673ffffffffffffffffffffffffffffffffffffffff163373ffffffffffffffffffffffffffffffffffffffff161461037e576040517f08c379a00000000000000000000000000000000000000000000000000000000081526004016103759061085e565b60405180910390fd5b6040518060800160405280858152602001848152602001838152602001828152506001866040516103af91906108ba565b908152602001604051809103902060008201518160000190816103d29190610a87565b5060208201518160010190816103e89190610a87565b5060408201518160020190816103fe9190610a87565b5060608201518160030190816104149190610a87565b509050505050505050565b6000604051905090565b600080fd5b600080fd5b600080fd5b600080fd5b6000601f19601f8301169050919050565b7f4e487b7100000000000000000000000000000000000000000000000000000000600052604160045260246000fd5b6104868261043d565b810181811067ffffffffffffffff821117156104a5576104a461044e565b5b80604052505050565b60006104b861041f565b90506104c4828261047d565b919050565b600067ffffffffffffffff8211156104e4576104e361044e565b5b6104ed8261043d565b9050602081019050919050565b82818337600083830152505050565b600061051c610517846104c9565b6104ae565b90508281526020810184848401111561053857610537610438565b5b6105438482856104fa565b509392505050565b600082601f8301126105605761055f610433565b5b8135610570848260208601610509565b91505092915050565b60006020828403121561058f5761058e610429565b5b600082013567ffffffffffffffff8111156105ad576105ac61042e565b5b6105b98482850161054b565b91505092915050565b600081519050919050565b600082825260208201905092915050565b60005b838110156105fc5780820151818401526020810190506105e1565b8381111561060b576000848401525b50505050565b600061061c826105c2565b61062681856105cd565b93506106368185602086016105de565b61063f8161043d565b840191505092915050565b600060808201905081810360008301526106648187610611565b905081810360208301526106788186610611565b9050818103604083015261068c8185610611565b905081810360608301526106a08184610611565b905095945050505050565b600080600080600060a086880312156106c7576106c6610429565b5b600086013567ffffffffffffffff8111156106e5576106e461042e565b5b6106f18882890161054b565b955050602086013567ffffffffffffffff8111156107125761071161042e565b5b61071e8882890161054b565b945050604086013567ffffffffffffffff81111561073f5761073e61042e565b5b61074b8882890161054b565b935050606086013567ffffffffffffffff81111561076c5761076b61042e565b5b6107788882890161054b565b925050608086013567ffffffffffffffff8111156107995761079861042e565b5b6107a58882890161054b565b9150509295509295909350565b7f4e487b7100000000000000000000000000000000000000000000000000000000600052602260045260246000fd5b600060028204905060018216806107f957607f821691505b60208210810361080c5761080b6107b2565b5b50919050565b7f496e737566696369656e742070726976696c6167650000000000000000000000600082015250565b60006108486015836105cd565b915061085382610812565b602082019050919050565b600060208201905081810360008301526108778161083b565b9050919050565b600081905092915050565b6000610894826105c2565b61089e818561087e565b93506108ae8185602086016105de565b80840191505092915050565b60006108c68284610889565b915081905092915050565b60008190508160005260206000209050919050565b60006020601f8301049050919050565b600082821b905092915050565b6000600883026109337fffffffffffffffffffffffffffffffffffffffffffffffffffffffffffffffff826108f6565b61093d86836108f6565b95508019841693508086168417925050509392505050565b6000819050919050565b6000819050919050565b600061098461097f61097a84610955565b61095f565b610955565b9050919050565b6000819050919050565b61099e83610969565b6109b26109aa8261098b565b848454610903565b825550505050565b600090565b6109c76109ba565b6109d2818484610995565b505050565b5b818110156109f6576109eb6000826109bf565b6001810190506109d8565b5050565b601f821115610a3b57610a0c816108d1565b610a15846108e6565b81016020851015610a24578190505b610a38610a30856108e6565b8301826109d7565b50505b505050565b600082821c905092915050565b6000610a5e60001984600802610a40565b1980831691505092915050565b6000610a778383610a4d565b9150826002028217905092915050565b610a90826105c2565b67ffffffffffffffff811115610aa957610aa861044e565b5b610ab382546107e1565b610abe8282856109fa565b600060209050601f831160018114610af15760008415610adf578287015190505b610ae98582610a6b565b865550610b51565b601f198416610aff866108d1565b60005b82811015610b2757848901518255600182019150602085019450602081019050610b02565b86831015610b445784890151610b40601f891682610a4d565b8355505b6001600288020188555050505b50505050505056fea26469706673582212207067d4cc3bd7af5b2941f326320c0a2733b89a2f7b33f5a5f9c2b36ca0ee7db064736f6c634300080f0033",
  "immutableReferences": {},
  "source": "// SPDX-License-Identifier: GPL-3.0\npragma solidity 0.8.15;\n\ncontract certi {\n    \n  address admin;\n  \n  constructor() {\n    admin = msg.sender;    \n  }\n  \n  modifier onlyAdmin {\n      require(msg.sender == admin, \"Insuficient privilage\");\n      _;\n  }\n  \n  struct certificate {\n      string courseName;\n      string candidateName;\n      string grade;\n      string date;\n  }\n  \n  mapping (string => certificate) public certificateDetails;\n  \n  function newCertificate (\n      string memory _certificateID,\n      string memory _courseName,\n      string memory _candidateName,\n      string memory _grade,\n      string memory _date ) public onlyAdmin {\n          certificateDetails[_certificateID] = certificate(\n                                                    _courseName,\n                                                    _candidateName,\n                                                    _grade,\n                                                    _date);\n      }\n}",
  "sourcePath": "/Users/franklinjohn/Documents/work/ethereum/express-certificate-dapp/contracts/CA.sol",
  "compiler": {
    "name": "solc",
    "version": "0.8.15+commit.e14f2714.Emscripten.clang"
  },
  "schemaVersion": "3.4.8",
  "updatedAt": "2022-07-15T15:10:52.757Z",
  "networkType": "ethereum",
  "devdoc": {
    "kind": "dev",
    "methods": {},
    "version": 1
  },
  "userdoc": {
    "kind": "user",
    "methods": {},
    "version": 1
  }
}